{
	"data": {
		"bytecode": {
			"linkReferences": {},
			"object": "6080604052348015600e575f80fd5b506105a38061001c5f395ff3fe60806040526004361061001d575f3560e01c80637376186014610021575b5f80fd5b61003b60048036038101906100369190610359565b61003d565b005b5f8590508073ffffffffffffffffffffffffffffffffffffffff16635f7b157734878787604051602401610071919061044c565b6040516020818303038152906040527fa4136862000000000000000000000000000000000000000000000000000000007bffffffffffffffffffffffffffffffffffffffffffffffffffffffff19166020820180517bffffffffffffffffffffffffffffffffffffffffffffffffffffffff838183161783525050505087336040518763ffffffff1660e01b8152600401610110959493929190610515565b5f604051808303818588803b158015610127575f80fd5b505af1158015610139573d5f803e3d5ffd5b5050505050505050505050565b5f604051905090565b5f80fd5b5f80fd5b5f73ffffffffffffffffffffffffffffffffffffffff82169050919050565b5f61018082610157565b9050919050565b61019081610176565b811461019a575f80fd5b50565b5f813590506101ab81610187565b92915050565b5f819050919050565b6101c3816101b1565b81146101cd575f80fd5b50565b5f813590506101de816101ba565b92915050565b5f80fd5b5f80fd5b5f601f19601f8301169050919050565b7f4e487b71000000000000000000000000000000000000000000000000000000005f52604160045260245ffd5b610232826101ec565b810181811067ffffffffffffffff82111715610251576102506101fc565b5b80604052505050565b5f610263610146565b905061026f8282610229565b919050565b5f67ffffffffffffffff82111561028e5761028d6101fc565b5b610297826101ec565b9050602081019050919050565b828183375f83830152505050565b5f6102c46102bf84610274565b61025a565b9050828152602081018484840111156102e0576102df6101e8565b5b6102eb8482856102a4565b509392505050565b5f82601f830112610307576103066101e4565b5b81356103178482602086016102b2565b91505092915050565b5f63ffffffff82169050919050565b61033881610320565b8114610342575f80fd5b50565b5f813590506103538161032f565b92915050565b5f805f805f60a086880312156103725761037161014f565b5b5f61037f8882890161019d565b95505060206103908882890161019d565b94505060406103a1888289016101d0565b935050606086013567ffffffffffffffff8111156103c2576103c1610153565b5b6103ce888289016102f3565b92505060806103df88828901610345565b9150509295509295909350565b5f81519050919050565b5f82825260208201905092915050565b8281835e5f83830152505050565b5f61041e826103ec565b61042881856103f6565b9350610438818560208601610406565b610441816101ec565b840191505092915050565b5f6020820190508181035f8301526104648184610414565b905092915050565b61047581610176565b82525050565b610484816101b1565b82525050565b5f81519050919050565b5f82825260208201905092915050565b5f6104ae8261048a565b6104b88185610494565b93506104c8818560208601610406565b6104d1816101ec565b840191505092915050565b5f819050919050565b5f6104ff6104fa6104f584610320565b6104dc565b6101b1565b9050919050565b61050f816104e5565b82525050565b5f60a0820190506105285f83018861046c565b610535602083018761047b565b818103604083015261054781866104a4565b90506105566060830185610506565b610563608083018461046c565b969550505050505056fea2646970667358221220c47b5e64e6765599355fce360801a41c8f896ea6c918bb2da22649862395dbc964736f6c63430008190033",
			"opcodes": "PUSH1 0x80 PUSH1 0x40 MSTORE CALLVALUE DUP1 ISZERO PUSH1 0xE JUMPI PUSH0 DUP1 REVERT JUMPDEST POP PUSH2 0x5A3 DUP1 PUSH2 0x1C PUSH0 CODECOPY PUSH0 RETURN INVALID PUSH1 0x80 PUSH1 0x40 MSTORE PUSH1 0x4 CALLDATASIZE LT PUSH2 0x1D JUMPI PUSH0 CALLDATALOAD PUSH1 0xE0 SHR DUP1 PUSH4 0x73761860 EQ PUSH2 0x21 JUMPI JUMPDEST PUSH0 DUP1 REVERT JUMPDEST PUSH2 0x3B PUSH1 0x4 DUP1 CALLDATASIZE SUB DUP2 ADD SWAP1 PUSH2 0x36 SWAP2 SWAP1 PUSH2 0x359 JUMP JUMPDEST PUSH2 0x3D JUMP JUMPDEST STOP JUMPDEST PUSH0 DUP6 SWAP1 POP DUP1 PUSH20 0xFFFFFFFFFFFFFFFFFFFFFFFFFFFFFFFFFFFFFFFF AND PUSH4 0x5F7B1577 CALLVALUE DUP8 DUP8 DUP8 PUSH1 0x40 MLOAD PUSH1 0x24 ADD PUSH2 0x71 SWAP2 SWAP1 PUSH2 0x44C JUMP JUMPDEST PUSH1 0x40 MLOAD PUSH1 0x20 DUP2 DUP4 SUB SUB DUP2 MSTORE SWAP1 PUSH1 0x40 MSTORE PUSH32 0xA413686200000000000000000000000000000000000000000000000000000000 PUSH28 0xFFFFFFFFFFFFFFFFFFFFFFFFFFFFFFFFFFFFFFFFFFFFFFFFFFFFFFFF NOT AND PUSH1 0x20 DUP3 ADD DUP1 MLOAD PUSH28 0xFFFFFFFFFFFFFFFFFFFFFFFFFFFFFFFFFFFFFFFFFFFFFFFFFFFFFFFF DUP4 DUP2 DUP4 AND OR DUP4 MSTORE POP POP POP POP DUP8 CALLER PUSH1 0x40 MLOAD DUP8 PUSH4 0xFFFFFFFF AND PUSH1 0xE0 SHL DUP2 MSTORE PUSH1 0x4 ADD PUSH2 0x110 SWAP6 SWAP5 SWAP4 SWAP3 SWAP2 SWAP1 PUSH2 0x515 JUMP JUMPDEST PUSH0 PUSH1 0x40 MLOAD DUP1 DUP4 SUB DUP2 DUP6 DUP9 DUP1 EXTCODESIZE ISZERO DUP1 ISZERO PUSH2 0x127 JUMPI PUSH0 DUP1 REVERT JUMPDEST POP GAS CALL ISZERO DUP1 ISZERO PUSH2 0x139 JUMPI RETURNDATASIZE PUSH0 DUP1 RETURNDATACOPY RETURNDATASIZE PUSH0 REVERT JUMPDEST POP POP POP POP POP POP POP POP POP POP POP JUMP JUMPDEST PUSH0 PUSH1 0x40 MLOAD SWAP1 POP SWAP1 JUMP JUMPDEST PUSH0 DUP1 REVERT JUMPDEST PUSH0 DUP1 REVERT JUMPDEST PUSH0 PUSH20 0xFFFFFFFFFFFFFFFFFFFFFFFFFFFFFFFFFFFFFFFF DUP3 AND SWAP1 POP SWAP2 SWAP1 POP JUMP JUMPDEST PUSH0 PUSH2 0x180 DUP3 PUSH2 0x157 JUMP JUMPDEST SWAP1 POP SWAP2 SWAP1 POP JUMP JUMPDEST PUSH2 0x190 DUP2 PUSH2 0x176 JUMP JUMPDEST DUP2 EQ PUSH2 0x19A JUMPI PUSH0 DUP1 REVERT JUMPDEST POP JUMP JUMPDEST PUSH0 DUP2 CALLDATALOAD SWAP1 POP PUSH2 0x1AB DUP2 PUSH2 0x187 JUMP JUMPDEST SWAP3 SWAP2 POP POP JUMP JUMPDEST PUSH0 DUP2 SWAP1 POP SWAP2 SWAP1 POP JUMP JUMPDEST PUSH2 0x1C3 DUP2 PUSH2 0x1B1 JUMP JUMPDEST DUP2 EQ PUSH2 0x1CD JUMPI PUSH0 DUP1 REVERT JUMPDEST POP JUMP JUMPDEST PUSH0 DUP2 CALLDATALOAD SWAP1 POP PUSH2 0x1DE DUP2 PUSH2 0x1BA JUMP JUMPDEST SWAP3 SWAP2 POP POP JUMP JUMPDEST PUSH0 DUP1 REVERT JUMPDEST PUSH0 DUP1 REVERT JUMPDEST PUSH0 PUSH1 0x1F NOT PUSH1 0x1F DUP4 ADD AND SWAP1 POP SWAP2 SWAP1 POP JUMP JUMPDEST PUSH32 0x4E487B7100000000000000000000000000000000000000000000000000000000 PUSH0 MSTORE PUSH1 0x41 PUSH1 0x4 MSTORE PUSH1 0x24 PUSH0 REVERT JUMPDEST PUSH2 0x232 DUP3 PUSH2 0x1EC JUMP JUMPDEST DUP2 ADD DUP2 DUP2 LT PUSH8 0xFFFFFFFFFFFFFFFF DUP3 GT OR ISZERO PUSH2 0x251 JUMPI PUSH2 0x250 PUSH2 0x1FC JUMP JUMPDEST JUMPDEST DUP1 PUSH1 0x40 MSTORE POP POP POP JUMP JUMPDEST PUSH0 PUSH2 0x263 PUSH2 0x146 JUMP JUMPDEST SWAP1 POP PUSH2 0x26F DUP3 DUP3 PUSH2 0x229 JUMP JUMPDEST SWAP2 SWAP1 POP JUMP JUMPDEST PUSH0 PUSH8 0xFFFFFFFFFFFFFFFF DUP3 GT ISZERO PUSH2 0x28E JUMPI PUSH2 0x28D PUSH2 0x1FC JUMP JUMPDEST JUMPDEST PUSH2 0x297 DUP3 PUSH2 0x1EC JUMP JUMPDEST SWAP1 POP PUSH1 0x20 DUP2 ADD SWAP1 POP SWAP2 SWAP1 POP JUMP JUMPDEST DUP3 DUP2 DUP4 CALLDATACOPY PUSH0 DUP4 DUP4 ADD MSTORE POP POP POP JUMP JUMPDEST PUSH0 PUSH2 0x2C4 PUSH2 0x2BF DUP5 PUSH2 0x274 JUMP JUMPDEST PUSH2 0x25A JUMP JUMPDEST SWAP1 POP DUP3 DUP2 MSTORE PUSH1 0x20 DUP2 ADD DUP5 DUP5 DUP5 ADD GT ISZERO PUSH2 0x2E0 JUMPI PUSH2 0x2DF PUSH2 0x1E8 JUMP JUMPDEST JUMPDEST PUSH2 0x2EB DUP5 DUP3 DUP6 PUSH2 0x2A4 JUMP JUMPDEST POP SWAP4 SWAP3 POP POP POP JUMP JUMPDEST PUSH0 DUP3 PUSH1 0x1F DUP4 ADD SLT PUSH2 0x307 JUMPI PUSH2 0x306 PUSH2 0x1E4 JUMP JUMPDEST JUMPDEST DUP2 CALLDATALOAD PUSH2 0x317 DUP5 DUP3 PUSH1 0x20 DUP7 ADD PUSH2 0x2B2 JUMP JUMPDEST SWAP2 POP POP SWAP3 SWAP2 POP POP JUMP JUMPDEST PUSH0 PUSH4 0xFFFFFFFF DUP3 AND SWAP1 POP SWAP2 SWAP1 POP JUMP JUMPDEST PUSH2 0x338 DUP2 PUSH2 0x320 JUMP JUMPDEST DUP2 EQ PUSH2 0x342 JUMPI PUSH0 DUP1 REVERT JUMPDEST POP JUMP JUMPDEST PUSH0 DUP2 CALLDATALOAD SWAP1 POP PUSH2 0x353 DUP2 PUSH2 0x32F JUMP JUMPDEST SWAP3 SWAP2 POP POP JUMP JUMPDEST PUSH0 DUP1 PUSH0 DUP1 PUSH0 PUSH1 0xA0 DUP7 DUP9 SUB SLT ISZERO PUSH2 0x372 JUMPI PUSH2 0x371 PUSH2 0x14F JUMP JUMPDEST JUMPDEST PUSH0 PUSH2 0x37F DUP9 DUP3 DUP10 ADD PUSH2 0x19D JUMP JUMPDEST SWAP6 POP POP PUSH1 0x20 PUSH2 0x390 DUP9 DUP3 DUP10 ADD PUSH2 0x19D JUMP JUMPDEST SWAP5 POP POP PUSH1 0x40 PUSH2 0x3A1 DUP9 DUP3 DUP10 ADD PUSH2 0x1D0 JUMP JUMPDEST SWAP4 POP POP PUSH1 0x60 DUP7 ADD CALLDATALOAD PUSH8 0xFFFFFFFFFFFFFFFF DUP2 GT ISZERO PUSH2 0x3C2 JUMPI PUSH2 0x3C1 PUSH2 0x153 JUMP JUMPDEST JUMPDEST PUSH2 0x3CE DUP9 DUP3 DUP10 ADD PUSH2 0x2F3 JUMP JUMPDEST SWAP3 POP POP PUSH1 0x80 PUSH2 0x3DF DUP9 DUP3 DUP10 ADD PUSH2 0x345 JUMP JUMPDEST SWAP2 POP POP SWAP3 SWAP6 POP SWAP3 SWAP6 SWAP1 SWAP4 POP JUMP JUMPDEST PUSH0 DUP2 MLOAD SWAP1 POP SWAP2 SWAP1 POP JUMP JUMPDEST PUSH0 DUP3 DUP3 MSTORE PUSH1 0x20 DUP3 ADD SWAP1 POP SWAP3 SWAP2 POP POP JUMP JUMPDEST DUP3 DUP2 DUP4 MCOPY PUSH0 DUP4 DUP4 ADD MSTORE POP POP POP JUMP JUMPDEST PUSH0 PUSH2 0x41E DUP3 PUSH2 0x3EC JUMP JUMPDEST PUSH2 0x428 DUP2 DUP6 PUSH2 0x3F6 JUMP JUMPDEST SWAP4 POP PUSH2 0x438 DUP2 DUP6 PUSH1 0x20 DUP7 ADD PUSH2 0x406 JUMP JUMPDEST PUSH2 0x441 DUP2 PUSH2 0x1EC JUMP JUMPDEST DUP5 ADD SWAP2 POP POP SWAP3 SWAP2 POP POP JUMP JUMPDEST PUSH0 PUSH1 0x20 DUP3 ADD SWAP1 POP DUP2 DUP2 SUB PUSH0 DUP4 ADD MSTORE PUSH2 0x464 DUP2 DUP5 PUSH2 0x414 JUMP JUMPDEST SWAP1 POP SWAP3 SWAP2 POP POP JUMP JUMPDEST PUSH2 0x475 DUP2 PUSH2 0x176 JUMP JUMPDEST DUP3 MSTORE POP POP JUMP JUMPDEST PUSH2 0x484 DUP2 PUSH2 0x1B1 JUMP JUMPDEST DUP3 MSTORE POP POP JUMP JUMPDEST PUSH0 DUP2 MLOAD SWAP1 POP SWAP2 SWAP1 POP JUMP JUMPDEST PUSH0 DUP3 DUP3 MSTORE PUSH1 0x20 DUP3 ADD SWAP1 POP SWAP3 SWAP2 POP POP JUMP JUMPDEST PUSH0 PUSH2 0x4AE DUP3 PUSH2 0x48A JUMP JUMPDEST PUSH2 0x4B8 DUP2 DUP6 PUSH2 0x494 JUMP JUMPDEST SWAP4 POP PUSH2 0x4C8 DUP2 DUP6 PUSH1 0x20 DUP7 ADD PUSH2 0x406 JUMP JUMPDEST PUSH2 0x4D1 DUP2 PUSH2 0x1EC JUMP JUMPDEST DUP5 ADD SWAP2 POP POP SWAP3 SWAP2 POP POP JUMP JUMPDEST PUSH0 DUP2 SWAP1 POP SWAP2 SWAP1 POP JUMP JUMPDEST PUSH0 PUSH2 0x4FF PUSH2 0x4FA PUSH2 0x4F5 DUP5 PUSH2 0x320 JUMP JUMPDEST PUSH2 0x4DC JUMP JUMPDEST PUSH2 0x1B1 JUMP JUMPDEST SWAP1 POP SWAP2 SWAP1 POP JUMP JUMPDEST PUSH2 0x50F DUP2 PUSH2 0x4E5 JUMP JUMPDEST DUP3 MSTORE POP POP JUMP JUMPDEST PUSH0 PUSH1 0xA0 DUP3 ADD SWAP1 POP PUSH2 0x528 PUSH0 DUP4 ADD DUP9 PUSH2 0x46C JUMP JUMPDEST PUSH2 0x535 PUSH1 0x20 DUP4 ADD DUP8 PUSH2 0x47B JUMP JUMPDEST DUP2 DUP2 SUB PUSH1 0x40 DUP4 ADD MSTORE PUSH2 0x547 DUP2 DUP7 PUSH2 0x4A4 JUMP JUMPDEST SWAP1 POP PUSH2 0x556 PUSH1 0x60 DUP4 ADD DUP6 PUSH2 0x506 JUMP JUMPDEST PUSH2 0x563 PUSH1 0x80 DUP4 ADD DUP5 PUSH2 0x46C JUMP JUMPDEST SWAP7 SWAP6 POP POP POP POP POP POP JUMP INVALID LOG2 PUSH5 0x6970667358 0x22 SLT KECCAK256 0xC4 PUSH28 0x5E64E6765599355FCE360801A41C8F896EA6C918BB2DA22649862395 0xDB 0xC9 PUSH5 0x736F6C6343 STOP ADDMOD NOT STOP CALLER "
		},
		"gasEstimates": {
			"creation": {
				"codeDepositCost": "288600",
				"executionCost": "329",
				"totalCost": "288929"
			},
			"external": {
				"executeFunctionCrosschain(address,address,uint256,string,uint32)": "infinite"
			}
		},
		"methodIdentifiers": {
			"executeFunctionCrosschain(address,address,uint256,string,uint32)": "73761860"
		}
	},
	"abi": [
		{
			"inputs": [
				{
					"internalType": "address",
					"name": "scrollMessengerAddress",
					"type": "address"
				},
				{
					"internalType": "address",
					"name": "targetAddress",
					"type": "address"
				},
				{
					"internalType": "uint256",
					"name": "value",
					"type": "uint256"
				},
				{
					"internalType": "string",
					"name": "greeting",
					"type": "string"
				},
				{
					"internalType": "uint32",
					"name": "gasLimit",
					"type": "uint32"
				}
			],
			"name": "executeFunctionCrosschain",
			"outputs": [],
			"stateMutability": "payable",
			"type": "function"
		}
	]
}